{
  "abi": [
    {
      "inputs": [],
      "name": "gasTest",
      "outputs": [],
      "stateMutability": "pure",
      "type": "function"
    }
  ],
  "bytecode": {
    "object": "0x6080604052348015600f57600080fd5b50606580601d6000396000f3fe6080604052348015600f57600080fd5b506004361060285760003560e01c8063a71f4eb914602d575b600080fd5b00fea26469706673582212208db7244957f12c2517bbe05b726f40d55018f2dd112150668ecddb6bbebf3e2564736f6c634300080d0033",
    "linkReferences": {}
  },
  "methodIdentifiers": {
    "gasTest()": "a71f4eb9"
  },
  "id": 2
}